:020000040800F2
:1000000000100020710B0008BF030008C1030008A6
:1000100000000000000000000000000000000000E0
:10002000000000000000000000000000C303000802
:100030000000000000000000C5030008C70300081E
:10004000C10B000800000000C10B0008C10B000834
:10005000C10B0008C10B0008C10B0008C10B000850
:1000600000000000C10B0008C10B0008C10B000814
:10007000C10B0008C10B0008C10B00080000000004
:10008000C10B00080000000000000000C10B0008C8
:1000900000000000C10B0008C10B0008C10B0008E4
:1000A00000000000C10B000800000000C10B0008A8
:1000B0000000000000000000000000000000000040
:1000C0000448054B10B5834203D0044B002B00D0ED
:1000D000984710BD0C0000200C000020000000001C
:1000E00006480749091A8B10C90FC91810B54910DD
:1000F00003D0044B002B00D0984710BD0C0000200B
:100100000C0000200000000010B5074C2378002BE5
:1001100009D1FFF7D5FF054B002B02D0044800E0C2
:1001200000BF0123237010BD0C0000200000000060
:10013000C40B0008054B10B5002B03D0044905483B
:1001400000E000BFFFF7CCFF10BDC046000000007C
:1001500010000020C40B000870B50C4D0C4E761B2F
:10016000B61005D0002408CD01349847A642FAD134
:1001700000F028FD074D084E761BB61005D0002470
:1001800008CD01349847A642FAD170BD140C00087E
:10019000140C0008140C0008180C0008F0B5050039
:1001A00083074AD0541E002A44D0CEB20300032253
:1001B00002E00135013C3DD301332E701342F8D1EA
:1001C000032C2FD9FF220A40150215432A04154398
:1001D0000F2C35D92700103F3F093E01B4461E00C1
:1001E0001A0010366644156055609560D56010326F
:1001F000B242F8D10F260C2201373F012640DB190D
:100200003700224217D03E1FB608B400A4461A0099
:100210001C1D644420C2A242FCD103240136B60056
:100220009B193C40002C05D0C9B21C191970013330
:100230009C42FBD1F0BD3400F4E714000300BFE79B
:100240002700E0E7002243088B4274D303098B4266
:100250005FD3030A8B4244D3030B8B4228D3030C96
:100260008B420DD3FF22090212BA030C8B4202D338
:100270001212090265D0030B8B4219D300E0090A60
:10028000C30B8B4201D3CB03C01A5241830B8B4269
:1002900001D38B03C01A5241430B8B4201D34B0352
:1002A000C01A5241030B8B4201D30B03C01A5241B7
:1002B000C30A8B4201D3CB02C01A5241830A8B423C
:1002C00001D38B02C01A5241430A8B4201D34B0225
:1002D000C01A5241030A8B4201D30B02C01A524189
:1002E000CDD2C3098B4201D3CB01C01A524183093D
:1002F0008B4201D38B01C01A524143098B4201D377
:100300004B01C01A524103098B4201D30B01C01AA1
:100310005241C3088B4201D3CB00C01A524183081B
:100320008B4201D38B00C01A524143088B4201D348
:100330004B00C01A5241411A00D2014652411046A8
:100340007047FFE701B5002000F006F802BDC04687
:100350000029F7D076E770477047C04672B6FEE7CF
:1003600000B591B02C22002105A8FFF717FF10223D
:1003700000216846FFF712FF02230493013B079315
:100380000F33089304A800F03BF800280DD1072391
:10039000009300230193029303930021684600F029
:1003A000B5FA002803D111B000BDFFF7D7FFFFF762
:1003B000D5FF10B500F06CFBFFF7D2FFFEE7FEE7BC
:1003C000FEE77047704710B500F072FB10BD0000EB
:1003D00082B00A4B996901221143996199690A40D7
:1003E0000092009ADA69802149050A43DA61DB69E3
:1003F0000B400193019B02B07047C04600100240C1
:1004000070B582B0041E00D12EE20368DB0726D54A
:10041000AE4B5A680C231340042B18D0AB4B5A68D0
:100420000C231340082B0ED06368012B3CD0002B0B
:1004300051D1A64B1A68A6490A401A601A68A54904
:100440000A401A6036E0A14B5B68DB03ECD59F4B9A
:100450001B689B0303D56368002B00D107E2236868
:100460009B0772D5994B5B680C221A425DD0974B63
:100470005A680C231340082B53D0E368002B00D19B
:1004800085E0924A136801210B43136000F01CFBC6
:1004900005008E4B1B689B0770D400F015FB401BBA
:1004A0000228F6D90320E0E1884A116880235B0224
:1004B0000B4313606368002B25D000F005FB05009B
:1004C000824B1B689B03CAD400F0FEFA401B6428D1
:1004D000F6D90320C9E1052B09D07C4B1A687C4969
:1004E0000A401A601A687B490A401A60E2E7774BB3
:1004F00019688022D2020A431A60196880225202C7
:100500000A431A60D6E700F0DFFA05006F4B1B685C
:100510009B03A4D500F0D8FA401B6428F6D9032029
:10052000A3E16A4B5B68DB03A7D4684B1B689B079E
:1005300003D5E368012B00D09BE164490B68F822E6
:1005400093432269D20013430B6023681B0744D5F1
:10055000E369002B2ED05D4A536A01210B4353629D
:1005600000F0B2FA0500594B5B6A9B0735D400F0E6
:10057000ABFA401B0228F6D9032076E153490B68F9
:10058000F82293432269D20013430B60DDE74F4A00
:10059000136801218B43136000F096FA05004B4B62
:1005A0001B689B07D1D500F08FFA401B0228F6D9B3
:1005B00003205AE1454A536A01218B43536200F0FC
:1005C00083FA0500414B5B6A9B0706D500F07CFA75
:1005D000401B0228F6D9032047E123685B0700D4BB
:1005E00080E03A4BDB69DB000BD4384AD1698020CC
:1005F00040050143D161D36903400193019B01256B
:1006000000E00025344B1B68DB050ED5A368012BE9
:100610001FD0002B34D12D4B1A6A01218A431A6254
:100620001A6A03318A431A6218E02B4A1168802340
:100630005B000B43136000F047FA0600264B1B6873
:10064000DB05E3D400F040FA801B6428F6D90320D0
:100650000BE11E4A136A01210B431362A368002BAE
:1006600024D000F031FA0600184B1B6A9B0737D4E0
:1006700000F02AFA801B194B9842F5D90320F4E0C8
:10068000052B09D0114B1A6A01218A431A621A6A92
:1006900003318A431A62E1E70C4B1A6A04210A43C8
:1006A0001A621A6A03390A431A62D7E700F00CFA91
:1006B0000600064B1B6A9B0712D500F005FA801B4B
:1006C000064B9842F5D90320CFE0C0460010024007
:1006D000FFFFFEFFFFFFFBFF0070004088130000DC
:1006E000012D33D02368DB0610D56369012B33D08D
:1006F000053351D1654A536B04218B435363536BCC
:10070000F4318B43A169C9000B435363236A002B67
:1007100000D1B0E05D4A51680C220A40082A00D19D
:100720008AE0022B4FD0594A136859490B40136095
:1007300000F0CAF90400554B1B689B017AD500F004
:10074000C3F9001B0228F6D903208EE04F4AD36973
:1007500050490B40D361C5E74C4B5A6B04210A4307
:100760005A635A6B03390A435A6300F0ADF9050026
:10077000464B5B6B9B0706D400F0A6F9401B022892
:10078000F6D9032071E041494B6BF8229343A269EB
:10079000D20013434B63B9E73C4B5A6B04210A4325
:1007A0005A635A6B03398A435A6300F08DF9050086
:1007B000364B5B6B9B07A9D500F086F9401B0228DE
:1007C000F6D9032051E0314A136831490B401360D8
:1007D00000F07AF905002D4B1B689B0106D500F04F
:1007E00073F9401B0228F6D903203EE0274BDA6A52
:1007F0000F218A43E16A0A43DA625A6826490A40AD
:10080000A16A606A01430A435A601968802252044F
:100810000A431A6000F058F904001C4B1B689B0146
:1008200006D400F051F9001B0228F6D903201CE081
:1008300000201AE0002018E0012B1ED0134B5A684C
:10084000D96A80235B021340606A834217D10F2369
:100850000B40E16A8B4214D1F0239B031A40A36A38
:100860009A4210D1002000E0012002B070BD0120AA
:10087000FBE70120F9E70020F7E70120F5E7012079
:10088000F3E70120F1E70120EFE7C0460010024046
:10089000FFFFFFFEFFFFFFEFFFFFC2FF10B588B0B5
:1008A00004AA164B13CB13C21B6813606A46144B81
:1008B00013CB13C21B681360124B5A680C231340EE
:1008C000082B02D0104808B010BD910C0733194016
:1008D00004A8445C0B49C96A0B406946C95CD30350
:1008E00004D50948FFF7AEFC6043ECE763011B1B2E
:1008F0009801C01AC00000190002E4E7DC0B0008F0
:10090000F00B00080010024000127A0070B50400DD
:100910000D00002800D17EE0434B1A6801231340EC
:100920008B420AD240490B68012293432B430B6050
:100930000B681A40AA4200D06FE023689A070ED5D0
:100940005B0705D5394A5168E023DB000B43536050
:10095000364A5368F0218B43A1680B4353602368E8
:10096000DB072DD56368012B1ED0022B22D02F4A26
:100970001268920753D52D494A68032082431343D6
:100980004B6000F0A1F80600284B5B680C221A406F
:1009900063689B009A4213D000F096F8801B244BAA
:1009A0009842F1D9032035E0204A12689203E2D43C
:1009B00001202FE01D4A12689201DCD4012029E0B9
:1009C000194B1A6801231340AB4209D916490B6829
:1009D000012293432B430B600B681A40AA4220D19B
:1009E00023685B0706D5114A536812490B40E1683A
:1009F0000B435360FFF752FF0C4B5A6812090F2349
:100A000013400D4AD35CD8400C4B1860032000F013
:100A100017F8002070BD0120FCE70120FAE7012053
:100A2000F8E70120F6E7C04600200240001002402F
:100A300088130000FFF8FFFF040C000808000020E6
:100A400010B504000F4B1978FA208000FFF7FAFB6D
:100A500001000D4B1868FFF7F5FB00F06BF800285C
:100A60000DD1032C01D901200AE001300022210020
:100A7000404200F02FF8054B1C60002000E00120F0
:100A800010BDC04600000020080000200400002027
:100A900010B5064A136810210B4313600320FFF7BB
:100AA000CFFFFFF795FC002010BDC046002002409C
:100AB000034A1168034B1B785B1813607047C046EC
:100AC0002800002000000020014B18687047C04635
:100AD0002800002070B5002811DB8308134EC033B6
:100AE0009B009D5903242040C000FF221400844035
:100AF000A54389010A4082402A439A5170BD0F23C1
:100B00000340083B9B0806339B00094A9446634414
:100B10005C6803221040C000FC3215008540AC43E5
:100B200089010A40824022435A60E7E700E100E081
:100B300000ED00E0013880235B0498420FD2094A9F
:100B400050600948036A1B021B0AC02109060B43B7
:100B50000362002393600733136000207047012075
:100B6000FCE7C04610E000E000ED00E07047000048
:100B70000D4885460D480E490E4A002302E0D45820
:100B8000C4500433C4188C42F9D30B4A0B4C0023D5
:100B900001E013600432A242FBD3FFF7E7FFFFF747
:100BA000DBFAFFF706FCFEE7001000200000002043
:100BB0000C0000201C0C00080C0000202C00002061
:100BC000FEE70000F8B5C046F8BC08BC9E4670477A
:0C0BD000F8B5C046F8BC08BC9E46704753
:100BDC0002030405060708090A0B0C0D0E0F101072
:100BEC00000000000102030405060708090A0B0CAB
:100BFC000D0E0F10000000000000000000000000AF
:080C0C000102030406070809B8
:040C1400350100089E
:040C180009010008C6
:0C0C1C00010000000400000000127A003B
:0400000508000B7173
:00000001FF
